{
  "contractName": "AlfaPayments",
  "abi": [
    {
      "constant": true,
      "inputs": [],
      "name": "arbitrationFee",
      "outputs": [
        {
          "name": "",
          "type": "uint256"
        }
      ],
      "payable": false,
      "stateMutability": "view",
      "type": "function"
    },
    {
      "constant": true,
      "inputs": [],
      "name": "arbitrationAddress",
      "outputs": [
        {
          "name": "",
          "type": "address"
        }
      ],
      "payable": false,
      "stateMutability": "view",
      "type": "function"
    },
    {
      "constant": true,
      "inputs": [],
      "name": "owner",
      "outputs": [
        {
          "name": "",
          "type": "address"
        }
      ],
      "payable": false,
      "stateMutability": "view",
      "type": "function"
    },
    {
      "constant": true,
      "inputs": [
        {
          "name": "",
          "type": "bytes32"
        }
      ],
      "name": "allPayments",
      "outputs": [
        {
          "name": "exist",
          "type": "bool"
        },
        {
          "name": "paymentStatus",
          "type": "uint8"
        },
        {
          "name": "paymentId",
          "type": "bytes32"
        },
        {
          "name": "paymentTokenContractAddress",
          "type": "address"
        },
        {
          "name": "demandEntityAddress",
          "type": "address"
        },
        {
          "name": "supplyEntityAddress",
          "type": "address"
        },
        {
          "name": "cost",
          "type": "uint256"
        },
        {
          "name": "securityDeposit",
          "type": "uint256"
        },
        {
          "name": "demandCancellationFee",
          "type": "uint256"
        },
        {
          "name": "supplyCancellationFee",
          "type": "uint256"
        },
        {
          "name": "cancelDeadlineInS",
          "type": "uint64"
        },
        {
          "name": "paymentDispatchTimeInS",
          "type": "uint64"
        },
        {
          "name": "demandPaid",
          "type": "bool"
        },
        {
          "name": "supplyPaid",
          "type": "bool"
        }
      ],
      "payable": false,
      "stateMutability": "view",
      "type": "function"
    },
    {
      "constant": false,
      "inputs": [
        {
          "name": "newOwner",
          "type": "address"
        }
      ],
      "name": "transferOwnership",
      "outputs": [],
      "payable": false,
      "stateMutability": "nonpayable",
      "type": "function"
    },
    {
      "inputs": [
        {
          "name": "arbitrationAddress_",
          "type": "address"
        },
        {
          "name": "arbitrationFee_",
          "type": "uint256"
        }
      ],
      "payable": false,
      "stateMutability": "nonpayable",
      "type": "constructor"
    },
    {
      "payable": true,
      "stateMutability": "payable",
      "type": "fallback"
    },
    {
      "anonymous": false,
      "inputs": [
        {
          "indexed": true,
          "name": "previousOwner",
          "type": "address"
        },
        {
          "indexed": true,
          "name": "newOwner",
          "type": "address"
        }
      ],
      "name": "OwnershipTransferred",
      "type": "event"
    },
    {
      "constant": false,
      "inputs": [
        {
          "name": "arbitrationAddress_",
          "type": "address"
        }
      ],
      "name": "updateArbitrationAddress",
      "outputs": [],
      "payable": false,
      "stateMutability": "nonpayable",
      "type": "function"
    },
    {
      "constant": false,
      "inputs": [
        {
          "name": "arbitrationFee_",
          "type": "uint256"
        }
      ],
      "name": "updateArbitrationFee",
      "outputs": [],
      "payable": false,
      "stateMutability": "nonpayable",
      "type": "function"
    },
    {
      "constant": false,
      "inputs": [
        {
          "name": "paymentId",
          "type": "bytes32"
        },
        {
          "name": "paymentTokenContractAddress",
          "type": "address"
        },
        {
          "name": "demandEntityAddress",
          "type": "address"
        },
        {
          "name": "supplyEntityAddress",
          "type": "address"
        },
        {
          "name": "cost",
          "type": "uint256"
        },
        {
          "name": "securityDeposit",
          "type": "uint256"
        },
        {
          "name": "demandCancellationFee",
          "type": "uint256"
        },
        {
          "name": "supplyCancellationFee",
          "type": "uint256"
        },
        {
          "name": "cancelDeadlineInS",
          "type": "uint64"
        },
        {
          "name": "paymentDispatchTimeInS",
          "type": "uint64"
        }
      ],
      "name": "initPayment",
      "outputs": [
        {
          "name": "success",
          "type": "bool"
        }
      ],
      "payable": false,
      "stateMutability": "nonpayable",
      "type": "function"
    },
    {
      "constant": false,
      "inputs": [
        {
          "name": "paymentId",
          "type": "bytes32"
        }
      ],
      "name": "pay",
      "outputs": [
        {
          "name": "success",
          "type": "bool"
        }
      ],
      "payable": false,
      "stateMutability": "nonpayable",
      "type": "function"
    },
    {
      "constant": false,
      "inputs": [
        {
          "name": "paymentId",
          "type": "bytes32"
        }
      ],
      "name": "dispatchPayment",
      "outputs": [],
      "payable": false,
      "stateMutability": "nonpayable",
      "type": "function"
    },
    {
      "constant": false,
      "inputs": [
        {
          "name": "paymentId",
          "type": "bytes32[]"
        }
      ],
      "name": "dispatchPayments",
      "outputs": [],
      "payable": false,
      "stateMutability": "nonpayable",
      "type": "function"
    },
    {
      "constant": false,
      "inputs": [
        {
          "name": "paymentId",
          "type": "bytes32"
        }
      ],
      "name": "cancelPayment",
      "outputs": [
        {
          "name": "success",
          "type": "bool"
        }
      ],
      "payable": false,
      "stateMutability": "nonpayable",
      "type": "function"
    },
    {
      "constant": false,
      "inputs": [
        {
          "name": "paymentId",
          "type": "bytes32"
        }
      ],
      "name": "disputePayment",
      "outputs": [
        {
          "name": "success",
          "type": "bool"
        }
      ],
      "payable": false,
      "stateMutability": "nonpayable",
      "type": "function"
    }
  ],
  "bytecode": "0x6060604052341561000f57600080fd5b60405160408061215c83398101604052808051906020019091908051906020019091905050336000806101000a81548173ffffffffffffffffffffffffffffffffffffffff021916908373ffffffffffffffffffffffffffffffffffffffff16021790555081600160006101000a81548173ffffffffffffffffffffffffffffffffffffffff021916908373ffffffffffffffffffffffffffffffffffffffff16021790555080600281905550505061208f806100cd6000396000f3006060604052600436106100c5576000357c0100000000000000000000000000000000000000000000000000000000900463ffffffff168063026c7692146100ca5780631cfa7ba8146100f157806326f99ff11461011a5780633471779f1461020057806361e968b414610223578063705056531461025c578063742cab98146102b15780638609cad1146102df5780638da5cb5b1461031e5780639c4dd6a214610373578063c46e9678146103b2578063daf598b0146103f1578063f2fde38b14610555575b600080fd5b34156100d557600080fd5b6100ef60048080356000191690602001909190505061058e565b005b34156100fc57600080fd5b610104610894565b6040518082815260200191505060405180910390f35b341561012557600080fd5b6101e660048080356000191690602001909190803573ffffffffffffffffffffffffffffffffffffffff1690602001909190803573ffffffffffffffffffffffffffffffffffffffff1690602001909190803573ffffffffffffffffffffffffffffffffffffffff1690602001909190803590602001909190803590602001909190803590602001909190803590602001909190803567ffffffffffffffff1690602001909190803567ffffffffffffffff1690602001909190505061089a565b604051808215151515815260200191505060405180910390f35b341561020b57600080fd5b6102216004808035906020019091905050610c25565b005b341561022e57600080fd5b61025a600480803573ffffffffffffffffffffffffffffffffffffffff16906020019091905050610c8a565b005b341561026757600080fd5b61026f610d29565b604051808273ffffffffffffffffffffffffffffffffffffffff1673ffffffffffffffffffffffffffffffffffffffff16815260200191505060405180910390f35b34156102bc57600080fd5b6102dd60048080359060200190820180359060200191909192905050610d4f565b005b34156102ea57600080fd5b610304600480803560001916906020019091905050610d9f565b604051808215151515815260200191505060405180910390f35b341561032957600080fd5b61033161124c565b604051808273ffffffffffffffffffffffffffffffffffffffff1673ffffffffffffffffffffffffffffffffffffffff16815260200191505060405180910390f35b341561037e57600080fd5b610398600480803560001916906020019091905050611271565b604051808215151515815260200191505060405180910390f35b34156103bd57600080fd5b6103d7600480803560001916906020019091905050611676565b604051808215151515815260200191505060405180910390f35b34156103fc57600080fd5b610416600480803560001916906020019091905050611dc8565b604051808f1515151581526020018e600581111561043057fe5b60ff1681526020018d600019166000191681526020018c73ffffffffffffffffffffffffffffffffffffffff1673ffffffffffffffffffffffffffffffffffffffff1681526020018b73ffffffffffffffffffffffffffffffffffffffff1673ffffffffffffffffffffffffffffffffffffffff1681526020018a73ffffffffffffffffffffffffffffffffffffffff1673ffffffffffffffffffffffffffffffffffffffff1681526020018981526020018881526020018781526020018681526020018567ffffffffffffffff1667ffffffffffffffff1681526020018467ffffffffffffffff1667ffffffffffffffff16815260200183151515158152602001821515151581526020019e50505050505050505050505050505060405180910390f35b341561056057600080fd5b61058c600480803573ffffffffffffffffffffffffffffffffffffffff16906020019091905050611ef0565b005b6000806000808460028060058111156105a357fe5b60036000846000191660001916815260200190815260200160002060000160019054906101000a900460ff1660058111156105da57fe5b1415156105e657600080fd5b60036000886000191660001916815260200190815260200160002095508560020160009054906101000a900473ffffffffffffffffffffffffffffffffffffffff169450428660090160089054906101000a900467ffffffffffffffff1667ffffffffffffffff161115151561065b57600080fd5b61066d86600801548760050154612045565b935061068186600701548760060154612045565b92508473ffffffffffffffffffffffffffffffffffffffff1663a9059cbb8760040160009054906101000a900473ffffffffffffffffffffffffffffffffffffffff16866000604051602001526040518363ffffffff167c0100000000000000000000000000000000000000000000000000000000028152600401808373ffffffffffffffffffffffffffffffffffffffff1673ffffffffffffffffffffffffffffffffffffffff16815260200182815260200192505050602060405180830381600087803b151561075257600080fd5b6102c65a03f1151561076357600080fd5b50505060405180519050801561085f57508473ffffffffffffffffffffffffffffffffffffffff1663a9059cbb8760030160009054906101000a900473ffffffffffffffffffffffffffffffffffffffff16856000604051602001526040518363ffffffff167c0100000000000000000000000000000000000000000000000000000000028152600401808373ffffffffffffffffffffffffffffffffffffffff1673ffffffffffffffffffffffffffffffffffffffff16815260200182815260200192505050602060405180830381600087803b151561084357600080fd5b6102c65a03f1151561085457600080fd5b505050604051805190505b1561088b5760058660000160016101000a81548160ff0219169083600581111561088557fe5b02179055505b50505050505050565b60025481565b60008060009054906101000a900473ffffffffffffffffffffffffffffffffffffffff1673ffffffffffffffffffffffffffffffffffffffff163373ffffffffffffffffffffffffffffffffffffffff161415156108f757600080fd5b600360008c6000191660001916815260200190815260200160002060000160009054906101000a900460ff161561092d57600080fd5b6101c0604051908101604052806001151581526020016001600581111561095057fe5b81526020018c6000191681526020018b73ffffffffffffffffffffffffffffffffffffffff1681526020018a73ffffffffffffffffffffffffffffffffffffffff1681526020018973ffffffffffffffffffffffffffffffffffffffff1681526020018881526020018781526020018681526020018581526020018467ffffffffffffffff1681526020018367ffffffffffffffff16815260200160001515815260200160001515815250600360008d6000191660001916815260200190815260200160002060008201518160000160006101000a81548160ff02191690831515021790555060208201518160000160016101000a81548160ff02191690836005811115610a5a57fe5b02179055506040820151816001019060001916905560608201518160020160006101000a81548173ffffffffffffffffffffffffffffffffffffffff021916908373ffffffffffffffffffffffffffffffffffffffff16021790555060808201518160030160006101000a81548173ffffffffffffffffffffffffffffffffffffffff021916908373ffffffffffffffffffffffffffffffffffffffff16021790555060a08201518160040160006101000a81548173ffffffffffffffffffffffffffffffffffffffff021916908373ffffffffffffffffffffffffffffffffffffffff16021790555060c0820151816005015560e08201518160060155610100820151816007015561012082015181600801556101408201518160090160006101000a81548167ffffffffffffffff021916908367ffffffffffffffff1602179055506101608201518160090160086101000a81548167ffffffffffffffff021916908367ffffffffffffffff1602179055506101808201518160090160106101000a81548160ff0219169083151502179055506101a08201518160090160116101000a81548160ff021916908315150217905550905050600190509a9950505050505050505050565b6000809054906101000a900473ffffffffffffffffffffffffffffffffffffffff1673ffffffffffffffffffffffffffffffffffffffff163373ffffffffffffffffffffffffffffffffffffffff16141515610c8057600080fd5b8060028190555050565b6000809054906101000a900473ffffffffffffffffffffffffffffffffffffffff1673ffffffffffffffffffffffffffffffffffffffff163373ffffffffffffffffffffffffffffffffffffffff16141515610ce557600080fd5b80600160006101000a81548173ffffffffffffffffffffffffffffffffffffffff021916908373ffffffffffffffffffffffffffffffffffffffff16021790555050565b600160009054906101000a900473ffffffffffffffffffffffffffffffffffffffff1681565b60008090505b828290508163ffffffff161015610d9a57610d8d83838363ffffffff168181101515610d7d57fe5b905060200201356000191661058e565b8080600101915050610d55565b505050565b600080600080846001806005811115610db457fe5b60036000846000191660001916815260200190815260200160002060000160019054906101000a900460ff166005811115610deb57fe5b141515610df757600080fd5b8660036000826000191660001916815260200190815260200160002060030160009054906101000a900473ffffffffffffffffffffffffffffffffffffffff1673ffffffffffffffffffffffffffffffffffffffff163373ffffffffffffffffffffffffffffffffffffffff161480610ed9575060036000826000191660001916815260200190815260200160002060040160009054906101000a900473ffffffffffffffffffffffffffffffffffffffff1673ffffffffffffffffffffffffffffffffffffffff163373ffffffffffffffffffffffffffffffffffffffff16145b1515610ee457600080fd5b60036000896000191660001916815260200190815260200160002095508560020160009054906101000a900473ffffffffffffffffffffffffffffffffffffffff1694508560030160009054906101000a900473ffffffffffffffffffffffffffffffffffffffff1673ffffffffffffffffffffffffffffffffffffffff163373ffffffffffffffffffffffffffffffffffffffff1614156110c357610f9f8660060154610f9a88600701548960050154612045565b612045565b93508473ffffffffffffffffffffffffffffffffffffffff166323b872dd3330876000604051602001526040518463ffffffff167c0100000000000000000000000000000000000000000000000000000000028152600401808473ffffffffffffffffffffffffffffffffffffffff1673ffffffffffffffffffffffffffffffffffffffff1681526020018373ffffffffffffffffffffffffffffffffffffffff1673ffffffffffffffffffffffffffffffffffffffff1681526020018281526020019350505050602060405180830381600087803b151561108057600080fd5b6102c65a03f1151561109157600080fd5b50505060405180519050156110be5760018660090160106101000a81548160ff0219169083151502179055505b6111e5565b8473ffffffffffffffffffffffffffffffffffffffff166323b872dd333089600801546000604051602001526040518463ffffffff167c0100000000000000000000000000000000000000000000000000000000028152600401808473ffffffffffffffffffffffffffffffffffffffff1673ffffffffffffffffffffffffffffffffffffffff1681526020018373ffffffffffffffffffffffffffffffffffffffff1673ffffffffffffffffffffffffffffffffffffffff1681526020018281526020019350505050602060405180830381600087803b15156111a657600080fd5b6102c65a03f115156111b757600080fd5b50505060405180519050156111e45760018660090160116101000a81548160ff0219169083151502179055505b5b8560090160109054906101000a900460ff16801561121157508560090160119054906101000a900460ff165b1561123d5760028660000160016101000a81548160ff0219169083600581111561123757fe5b02179055505b60019650505050505050919050565b6000809054906101000a900473ffffffffffffffffffffffffffffffffffffffff1681565b6000806000808460036000826000191660001916815260200190815260200160002060030160009054906101000a900473ffffffffffffffffffffffffffffffffffffffff1673ffffffffffffffffffffffffffffffffffffffff163373ffffffffffffffffffffffffffffffffffffffff161480611359575060036000826000191660001916815260200190815260200160002060040160009054906101000a900473ffffffffffffffffffffffffffffffffffffffff1673ffffffffffffffffffffffffffffffffffffffff163373ffffffffffffffffffffffffffffffffffffffff16145b151561136457600080fd5b85600280600581111561137357fe5b60036000846000191660001916815260200190815260200160002060000160019054906101000a900460ff1660058111156113aa57fe5b1415156113b657600080fd5b60036000896000191660001916815260200190815260200160002095508560020160009054906101000a900473ffffffffffffffffffffffffffffffffffffffff1694506114268660060154611421886007015461141c8a600501548b60080154612045565b612045565b612045565b93508473ffffffffffffffffffffffffffffffffffffffff166323b872dd33600160009054906101000a900473ffffffffffffffffffffffffffffffffffffffff166002546000604051602001526040518463ffffffff167c0100000000000000000000000000000000000000000000000000000000028152600401808473ffffffffffffffffffffffffffffffffffffffff1673ffffffffffffffffffffffffffffffffffffffff1681526020018373ffffffffffffffffffffffffffffffffffffffff1673ffffffffffffffffffffffffffffffffffffffff1681526020018281526020019350505050602060405180830381600087803b151561152b57600080fd5b6102c65a03f1151561153c57600080fd5b50505060405180519050801561163657508473ffffffffffffffffffffffffffffffffffffffff1663a9059cbb600160009054906101000a900473ffffffffffffffffffffffffffffffffffffffff16866000604051602001526040518363ffffffff167c0100000000000000000000000000000000000000000000000000000000028152600401808373ffffffffffffffffffffffffffffffffffffffff1673ffffffffffffffffffffffffffffffffffffffff16815260200182815260200192505050602060405180830381600087803b151561161a57600080fd5b6102c65a03f1151561162b57600080fd5b505050604051805190505b151561164157600080fd5b60038660000160016101000a81548160ff0219169083600581111561166257fe5b021790555060019650505050505050919050565b60008060008060008560036000826000191660001916815260200190815260200160002060030160009054906101000a900473ffffffffffffffffffffffffffffffffffffffff1673ffffffffffffffffffffffffffffffffffffffff163373ffffffffffffffffffffffffffffffffffffffff161480611760575060036000826000191660001916815260200190815260200160002060040160009054906101000a900473ffffffffffffffffffffffffffffffffffffffff1673ffffffffffffffffffffffffffffffffffffffff163373ffffffffffffffffffffffffffffffffffffffff16145b151561176b57600080fd5b60036000886000191660001916815260200190815260200160002094508460020160009054906101000a900473ffffffffffffffffffffffffffffffffffffffff169350428560090160009054906101000a900467ffffffffffffffff1667ffffffffffffffff161015611a0b576117f885600601546117f387600701548860050154612045565b612045565b92508373ffffffffffffffffffffffffffffffffffffffff1663a9059cbb8660030160009054906101000a900473ffffffffffffffffffffffffffffffffffffffff16856000604051602001526040518363ffffffff167c0100000000000000000000000000000000000000000000000000000000028152600401808373ffffffffffffffffffffffffffffffffffffffff1673ffffffffffffffffffffffffffffffffffffffff16815260200182815260200192505050602060405180830381600087803b15156118c957600080fd5b6102c65a03f115156118da57600080fd5b5050506040518051905080156119da57508373ffffffffffffffffffffffffffffffffffffffff1663a9059cbb8660040160009054906101000a900473ffffffffffffffffffffffffffffffffffffffff1687600801546000604051602001526040518363ffffffff167c0100000000000000000000000000000000000000000000000000000000028152600401808373ffffffffffffffffffffffffffffffffffffffff1673ffffffffffffffffffffffffffffffffffffffff16815260200182815260200192505050602060405180830381600087803b15156119be57600080fd5b6102c65a03f115156119cf57600080fd5b505050604051805190505b15611a065760048560000160016101000a81548160ff02191690836005811115611a0057fe5b02179055505b611dba565b8460030160009054906101000a900473ffffffffffffffffffffffffffffffffffffffff1673ffffffffffffffffffffffffffffffffffffffff163373ffffffffffffffffffffffffffffffffffffffff161415611c7457611a7585600601548660050154612045565b9250611a8985600801548660070154612045565b91508373ffffffffffffffffffffffffffffffffffffffff1663a9059cbb33856000604051602001526040518363ffffffff167c0100000000000000000000000000000000000000000000000000000000028152600401808373ffffffffffffffffffffffffffffffffffffffff1673ffffffffffffffffffffffffffffffffffffffff16815260200182815260200192505050602060405180830381600087803b1515611b3657600080fd5b6102c65a03f11515611b4757600080fd5b505050604051805190508015611c4357508373ffffffffffffffffffffffffffffffffffffffff1663a9059cbb8660040160009054906101000a900473ffffffffffffffffffffffffffffffffffffffff16846000604051602001526040518363ffffffff167c0100000000000000000000000000000000000000000000000000000000028152600401808373ffffffffffffffffffffffffffffffffffffffff1673ffffffffffffffffffffffffffffffffffffffff16815260200182815260200192505050602060405180830381600087803b1515611c2757600080fd5b6102c65a03f11515611c3857600080fd5b505050604051805190505b15611c6f5760048560000160016101000a81548160ff02191690836005811115611c6957fe5b02179055505b611db9565b611ca08560060154611c9b8760050154611c9689600801548a60070154612045565b612045565b612045565b92508373ffffffffffffffffffffffffffffffffffffffff1663a9059cbb8660030160009054906101000a900473ffffffffffffffffffffffffffffffffffffffff16856000604051602001526040518363ffffffff167c0100000000000000000000000000000000000000000000000000000000028152600401808373ffffffffffffffffffffffffffffffffffffffff1673ffffffffffffffffffffffffffffffffffffffff16815260200182815260200192505050602060405180830381600087803b1515611d7157600080fd5b6102c65a03f11515611d8257600080fd5b5050506040518051905015611db85760048560000160016101000a81548160ff02191690836005811115611db257fe5b02179055505b5b5b600195505050505050919050565b60036020528060005260406000206000915090508060000160009054906101000a900460ff16908060000160019054906101000a900460ff16908060010154908060020160009054906101000a900473ffffffffffffffffffffffffffffffffffffffff16908060030160009054906101000a900473ffffffffffffffffffffffffffffffffffffffff16908060040160009054906101000a900473ffffffffffffffffffffffffffffffffffffffff16908060050154908060060154908060070154908060080154908060090160009054906101000a900467ffffffffffffffff16908060090160089054906101000a900467ffffffffffffffff16908060090160109054906101000a900460ff16908060090160119054906101000a900460ff1690508e565b6000809054906101000a900473ffffffffffffffffffffffffffffffffffffffff1673ffffffffffffffffffffffffffffffffffffffff163373ffffffffffffffffffffffffffffffffffffffff16141515611f4b57600080fd5b600073ffffffffffffffffffffffffffffffffffffffff168173ffffffffffffffffffffffffffffffffffffffff1614151515611f8757600080fd5b8073ffffffffffffffffffffffffffffffffffffffff166000809054906101000a900473ffffffffffffffffffffffffffffffffffffffff1673ffffffffffffffffffffffffffffffffffffffff167f8be0079c531659141344cd1fd0a4f28419497f9722a3daafe3b4186f6b6457e060405160405180910390a3806000806101000a81548173ffffffffffffffffffffffffffffffffffffffff021916908373ffffffffffffffffffffffffffffffffffffffff16021790555050565b600080828401905083811015151561205957fe5b80915050929150505600a165627a7a72305820d042261b240d53ea23d3f27e5267ea0a4c94389bc4485a13e5b6adacbe3486e00029",
  "source": "pragma solidity ^0.4.18;\n\nimport '../node_modules/zeppelin-solidity/contracts/token/ERC20/ERC20.sol';\nimport '../node_modules/zeppelin-solidity/contracts/math/SafeMath.sol';\nimport '../node_modules/zeppelin-solidity/contracts/ownership/Ownable.sol';\n\n\ncontract AlfaPayments is Ownable { \n    \n    \n    using SafeMath for uint256;\n    address public arbitrationAddress;\n    uint256 public arbitrationFee;\n\n    enum PaymentStatus {\n        NOT_FOUND,      // payment does not exist\n        INITIALIZED,    // awaiting payment from supply & demand entities\n        IN_PROGRESS,    // awaiting dispatch time to pass, or a dispute\n        IN_ARBITRATION, // dispute has been raised, to be handled by Arbitration\n        CANCELED,       // payment canceled \n        COMPLETED       // payment successful \n    }\n\n    // We can call functions inside of structs. Might be nice to have a callback in here\n    struct PaymentStruct {\n        bool exist;\n        PaymentStatus paymentStatus;\n        bytes32 paymentId; // keccak256 hash of all fields\n        address paymentTokenContractAddress;\n        address demandEntityAddress;\n        address supplyEntityAddress;\n        uint256 cost;\n        uint256 securityDeposit;\n        uint256 demandCancellationFee;\n        uint256 supplyCancellationFee;\n        uint64 cancelDeadlineInS;\n        uint64 paymentDispatchTimeInS;\n        bool demandPaid;\n        bool supplyPaid;\n    }\n    \n    // TODO: define events\n    //event Pay(address user, bool paid, uint amount);\n    //event CancelPayment(uint time, uint amount);\n    //event DisputePayment(uint time, uint amount);\n\n    // TODO: define modifiers\n    modifier demandOrSupplyEntity(bytes32 paymentId) {\n        require(\n            msg.sender == allPayments[paymentId].demandEntityAddress ||\n            msg.sender == allPayments[paymentId].supplyEntityAddress\n        );\n        _;\n    }\n\n    modifier onlyPaymentStatus(bytes32 paymentId, PaymentStatus paymentStatus) {\n        require(allPayments[paymentId].paymentStatus == paymentStatus);\n        _;\n    }\n    \n    // maps the paymentIds to the struct\n    mapping (bytes32 => PaymentStruct) public allPayments;\n\n    function AlfaPayments(address arbitrationAddress_, uint256 arbitrationFee_) public {\n        arbitrationAddress = arbitrationAddress_;\n        arbitrationFee = arbitrationFee_;\n    }\n\n    function () public payable {\n        revert();\n    }\n    \n    function updateArbitrationAddress(address arbitrationAddress_) public onlyOwner {\n        arbitrationAddress = arbitrationAddress_;\n    }\n\n    function updateArbitrationFee(uint256 arbitrationFee_) public onlyOwner {\n        arbitrationFee = arbitrationFee_;\n    }\n    \n    /**\n     * Initializes a new payment, and awaits for supply & demand entities to\n     * pay.\n     * \n     * @return a payment id for the caller to keep.\n     */\n    function initPayment(\n        bytes32 paymentId,\n        address paymentTokenContractAddress,\n        address demandEntityAddress,\n        address supplyEntityAddress,\n        uint256 cost,\n        uint256 securityDeposit,\n        uint256 demandCancellationFee,\n        uint supplyCancellationFee,\n        uint64 cancelDeadlineInS,\n        uint64 paymentDispatchTimeInS\n    ) public onlyOwner returns(bool success)\n    {\n        if (allPayments[paymentId].exist) {\n            revert();\n            // return false;\n        }\n\n        allPayments[paymentId] = PaymentStruct(\n            true,\n            PaymentStatus.INITIALIZED,\n            paymentId,\n            paymentTokenContractAddress,\n            demandEntityAddress,\n            supplyEntityAddress,\n            cost,\n            securityDeposit,\n            demandCancellationFee,\n            supplyCancellationFee,\n            cancelDeadlineInS,\n            paymentDispatchTimeInS,\n            false,\n            false\n        );\n        return true;\n    }\n    \n    /**\n     * To be invoked by entities to pay.\n     */\n    // must call approve on token contract to allow pay to transfer on their behalf\n    function pay(\n        bytes32 paymentId\n    ) public\n    onlyPaymentStatus(paymentId, PaymentStatus.INITIALIZED)\n    demandOrSupplyEntity(paymentId)\n    returns (bool success)\n    {\n        PaymentStruct storage payment = allPayments[paymentId];\n        ERC20 tokenContract = ERC20(payment.paymentTokenContractAddress);\n        if (msg.sender == payment.demandEntityAddress) {\n            uint256 amountToPay = SafeMath.add(\n                payment.securityDeposit,\n                SafeMath.add(\n                    payment.demandCancellationFee,\n                    payment.cost\n                )\n            );\n            if (tokenContract.transferFrom(msg.sender, this, amountToPay)) {\n                payment.demandPaid = true;\n            }\n        } else {\n            if (tokenContract.transferFrom(msg.sender, this, payment.supplyCancellationFee)) {\n                payment.supplyPaid = true;\n            }\n        }\n\n        if (payment.demandPaid && payment.supplyPaid) {\n            payment.paymentStatus = PaymentStatus.IN_PROGRESS;\n        }\n        return true;\n    }\n    \n    function dispatchPayment(bytes32 paymentId) public onlyPaymentStatus(paymentId, PaymentStatus.IN_PROGRESS) {\n        PaymentStruct storage payment = allPayments[paymentId];\n        ERC20 tokenContract = ERC20(payment.paymentTokenContractAddress);\n        require(payment.paymentDispatchTimeInS <= now);\n        \n        uint256 supplyPayout = SafeMath.add(payment.supplyCancellationFee, payment.cost);\n        uint256 demandPayout = SafeMath.add(payment.demandCancellationFee, payment.securityDeposit);\n        \n        if (tokenContract.transfer(payment.supplyEntityAddress, supplyPayout)\n            && tokenContract.transfer(payment.demandEntityAddress, demandPayout)) {\n            payment.paymentStatus = PaymentStatus.COMPLETED;\n        }\n    }\n    /**\n     * Dispatches in progress payments daily based on paymentDispatchTimeInS.\n     * This will only be the happy path\n     */\n    // Make a function to get the list of inProgress payments mapping. \n    function dispatchPayments(bytes32[] paymentId) external {\n        // TODO: check daily in progress payments, and pay appropirate accounts.\n        // TODO: move successful payments from in progress to completed\n        // check gas costs - limit iterating through every IN_PROGRESS payment\n        \n        for (uint32 i = 0; i < paymentId.length; i++) {\n            dispatchPayment(paymentId[i]);\n        }\n    }\n\n    /**\n     * Cancels that payment in progress. Runs canclation rules as appropriate.\n     * @return true if cancel is successful, false otherwise\n     */\n    function cancelPayment(bytes32 paymentId) public demandOrSupplyEntity(paymentId) returns(bool success) {\n        PaymentStruct storage payment = allPayments[paymentId];\n        ERC20 tokenContract = ERC20(payment.paymentTokenContractAddress);\n        // replace now with oracle time\n        if (payment.cancelDeadlineInS < now) {\n            uint256 amountReturnedDemand = SafeMath.add(\n                payment.securityDeposit,\n                SafeMath.add(\n                    payment.demandCancellationFee,\n                    payment.cost\n                )\n            );\n            if (tokenContract.transfer(payment.demandEntityAddress, amountReturnedDemand)\n                && tokenContract.transfer(payment.supplyEntityAddress, payment.supplyCancellationFee)) {\n                payment.paymentStatus = PaymentStatus.CANCELED;\n            }\n        } else {\n            if (msg.sender == payment.demandEntityAddress) {\n            // transfer demandCancellationFee to supply entity\n                amountReturnedDemand = SafeMath.add(\n                    payment.securityDeposit,\n                    payment.cost\n                );\n                uint256 amountReturnedSupply = SafeMath.add(\n                    payment.supplyCancellationFee,\n                    payment.demandCancellationFee\n                );\n                if (tokenContract.transfer(msg.sender, amountReturnedDemand)\n                    && tokenContract.transfer(payment.supplyEntityAddress, amountReturnedSupply)) {\n                    payment.paymentStatus = PaymentStatus.CANCELED;\n                }\n            } else {\n                // Return demand entity's money in addition to supply cancellation fee\n                amountReturnedDemand = SafeMath.add(\n                    payment.securityDeposit,\n                    SafeMath.add(\n                        payment.cost,\n                        SafeMath.add(\n                            payment.supplyCancellationFee,\n                            payment.demandCancellationFee)\n                    )\n                );\n                if (tokenContract.transfer(payment.demandEntityAddress, amountReturnedDemand)) {\n                    payment.paymentStatus = PaymentStatus.CANCELED;\n                }\n            }\n        }\n        return true;\n    }\n    /**\n     * Moves the in progress payment into arbitration.\n     * Needs web3 approve call\n     */\n\n    function disputePayment(bytes32 paymentId) \n    public\n    demandOrSupplyEntity(paymentId)\n    onlyPaymentStatus(paymentId, PaymentStatus.IN_PROGRESS)\n    returns(bool success)\n    {\n        // TODO: pass escrow to Alfa Arbitration protocol\n        // TODO: move from in progress to arbitration\n        PaymentStruct storage payment = allPayments[paymentId];\n        ERC20 tokenContract = ERC20(payment.paymentTokenContractAddress);\n        uint256 total = SafeMath.add(\n            payment.securityDeposit,\n            SafeMath.add(\n                payment.demandCancellationFee,\n                SafeMath.add(\n                    payment.cost,\n                    payment.supplyCancellationFee\n                )\n            )\n        );\n\n        require(tokenContract.transferFrom(msg.sender, arbitrationAddress, arbitrationFee)\n        && tokenContract.transfer(arbitrationAddress, total));\n        payment.paymentStatus = PaymentStatus.IN_ARBITRATION;\n\n        return true;\n    }\n    /**\n     * Used to get all info about the payment.\n     * @return all info of the payment, including payment id and status.\n     */\n    // Will not work until solidity version updates with #3272\n    /*\n    function getPaymentStatus(bytes32 paymentId) public view returns(PaymentStruct) {\n        if (allPayments[paymentId].exist) {\n            return allPayments[paymentId];\n        } else {\n            revert();\n        }\n    }\n    */\n}\n",
  "sourcePath": "C:\\Ethereum\\crowdsalecontract-smart\\smartcontracts-master\\contracts\\AlfaPayments.sol",
  "compiler": {
    "name": "solc",
    "version": "0.4.19+commit.c4cbbb05.Emscripten.clang"
  },
  "schemaVersion": "1.0.1",
  "updatedAt": "2018-02-16T07:10:18.688Z"
}