{
  "contractName": "AlfaTokenOffering",
  "abi": [
    {
      "constant": true,
      "inputs": [
        {
          "name": "",
          "type": "uint256"
        }
      ],
      "name": "tierCaps",
      "outputs": [
        {
          "name": "",
          "type": "uint256"
        }
      ],
      "payable": false,
      "stateMutability": "view",
      "type": "function"
    },
    {
      "constant": true,
      "inputs": [],
      "name": "rate",
      "outputs": [
        {
          "name": "",
          "type": "uint256"
        }
      ],
      "payable": false,
      "stateMutability": "view",
      "type": "function"
    },
    {
      "constant": true,
      "inputs": [],
      "name": "capDoublingTimestamp",
      "outputs": [
        {
          "name": "",
          "type": "uint256"
        }
      ],
      "payable": false,
      "stateMutability": "view",
      "type": "function"
    },
    {
      "constant": true,
      "inputs": [],
      "name": "endTime",
      "outputs": [
        {
          "name": "",
          "type": "uint256"
        }
      ],
      "payable": false,
      "stateMutability": "view",
      "type": "function"
    },
    {
      "constant": true,
      "inputs": [],
      "name": "beneficiary",
      "outputs": [
        {
          "name": "",
          "type": "address"
        }
      ],
      "payable": false,
      "stateMutability": "view",
      "type": "function"
    },
    {
      "constant": false,
      "inputs": [],
      "name": "unpause",
      "outputs": [],
      "payable": false,
      "stateMutability": "nonpayable",
      "type": "function"
    },
    {
      "constant": true,
      "inputs": [],
      "name": "weiRaised",
      "outputs": [
        {
          "name": "",
          "type": "uint256"
        }
      ],
      "payable": false,
      "stateMutability": "view",
      "type": "function"
    },
    {
      "constant": true,
      "inputs": [
        {
          "name": "",
          "type": "address"
        }
      ],
      "name": "contributions",
      "outputs": [
        {
          "name": "",
          "type": "uint256"
        }
      ],
      "payable": false,
      "stateMutability": "view",
      "type": "function"
    },
    {
      "constant": true,
      "inputs": [],
      "name": "paused",
      "outputs": [
        {
          "name": "",
          "type": "bool"
        }
      ],
      "payable": false,
      "stateMutability": "view",
      "type": "function"
    },
    {
      "constant": true,
      "inputs": [],
      "name": "startTime",
      "outputs": [
        {
          "name": "",
          "type": "uint256"
        }
      ],
      "payable": false,
      "stateMutability": "view",
      "type": "function"
    },
    {
      "constant": true,
      "inputs": [],
      "name": "capReleaseTimestamp",
      "outputs": [
        {
          "name": "",
          "type": "uint256"
        }
      ],
      "payable": false,
      "stateMutability": "view",
      "type": "function"
    },
    {
      "constant": false,
      "inputs": [],
      "name": "pause",
      "outputs": [],
      "payable": false,
      "stateMutability": "nonpayable",
      "type": "function"
    },
    {
      "constant": true,
      "inputs": [],
      "name": "MINIMUM_CONTRIBUTION",
      "outputs": [
        {
          "name": "",
          "type": "uint256"
        }
      ],
      "payable": false,
      "stateMutability": "view",
      "type": "function"
    },
    {
      "constant": true,
      "inputs": [],
      "name": "owner",
      "outputs": [
        {
          "name": "",
          "type": "address"
        }
      ],
      "payable": false,
      "stateMutability": "view",
      "type": "function"
    },
    {
      "constant": true,
      "inputs": [],
      "name": "stage",
      "outputs": [
        {
          "name": "",
          "type": "uint8"
        }
      ],
      "payable": false,
      "stateMutability": "view",
      "type": "function"
    },
    {
      "constant": true,
      "inputs": [],
      "name": "FUNDING_ETH_HARD_CAP",
      "outputs": [
        {
          "name": "",
          "type": "uint256"
        }
      ],
      "payable": false,
      "stateMutability": "view",
      "type": "function"
    },
    {
      "constant": true,
      "inputs": [
        {
          "name": "",
          "type": "uint8"
        },
        {
          "name": "",
          "type": "address"
        }
      ],
      "name": "whitelists",
      "outputs": [
        {
          "name": "",
          "type": "bool"
        }
      ],
      "payable": false,
      "stateMutability": "view",
      "type": "function"
    },
    {
      "constant": false,
      "inputs": [
        {
          "name": "newOwner",
          "type": "address"
        }
      ],
      "name": "transferOwnership",
      "outputs": [],
      "payable": false,
      "stateMutability": "nonpayable",
      "type": "function"
    },
    {
      "constant": true,
      "inputs": [],
      "name": "token",
      "outputs": [
        {
          "name": "",
          "type": "address"
        }
      ],
      "payable": false,
      "stateMutability": "view",
      "type": "function"
    },
    {
      "inputs": [
        {
          "name": "alfaToEtherRate",
          "type": "uint256"
        },
        {
          "name": "beneficiaryAddr",
          "type": "address"
        },
        {
          "name": "baseContributionCapInWei",
          "type": "uint256"
        },
        {
          "name": "tokenAddress",
          "type": "address"
        }
      ],
      "payable": false,
      "stateMutability": "nonpayable",
      "type": "constructor"
    },
    {
      "payable": true,
      "stateMutability": "payable",
      "type": "fallback"
    },
    {
      "anonymous": false,
      "inputs": [
        {
          "indexed": false,
          "name": "startTime",
          "type": "uint256"
        },
        {
          "indexed": false,
          "name": "endTime",
          "type": "uint256"
        }
      ],
      "name": "OfferingOpens",
      "type": "event"
    },
    {
      "anonymous": false,
      "inputs": [
        {
          "indexed": false,
          "name": "endTime",
          "type": "uint256"
        },
        {
          "indexed": false,
          "name": "totalWeiRaised",
          "type": "uint256"
        }
      ],
      "name": "OfferingCloses",
      "type": "event"
    },
    {
      "anonymous": false,
      "inputs": [
        {
          "indexed": true,
          "name": "purchaser",
          "type": "address"
        },
        {
          "indexed": false,
          "name": "value",
          "type": "uint256"
        },
        {
          "indexed": false,
          "name": "amount",
          "type": "uint256"
        }
      ],
      "name": "TokenPurchase",
      "type": "event"
    },
    {
      "anonymous": false,
      "inputs": [],
      "name": "Pause",
      "type": "event"
    },
    {
      "anonymous": false,
      "inputs": [],
      "name": "Unpause",
      "type": "event"
    },
    {
      "anonymous": false,
      "inputs": [
        {
          "indexed": true,
          "name": "previousOwner",
          "type": "address"
        },
        {
          "indexed": true,
          "name": "newOwner",
          "type": "address"
        }
      ],
      "name": "OwnershipTransferred",
      "type": "event"
    },
    {
      "constant": false,
      "inputs": [],
      "name": "ownerSafeWithdrawal",
      "outputs": [],
      "payable": false,
      "stateMutability": "nonpayable",
      "type": "function"
    },
    {
      "constant": false,
      "inputs": [
        {
          "name": "alfaToEtherRate",
          "type": "uint256"
        }
      ],
      "name": "updateRate",
      "outputs": [],
      "payable": false,
      "stateMutability": "nonpayable",
      "type": "function"
    },
    {
      "constant": false,
      "inputs": [
        {
          "name": "tiers",
          "type": "uint8[]"
        },
        {
          "name": "users",
          "type": "address[]"
        }
      ],
      "name": "whitelist",
      "outputs": [],
      "payable": false,
      "stateMutability": "nonpayable",
      "type": "function"
    },
    {
      "constant": false,
      "inputs": [
        {
          "name": "durationInSeconds",
          "type": "uint256"
        }
      ],
      "name": "startOffering",
      "outputs": [],
      "payable": false,
      "stateMutability": "nonpayable",
      "type": "function"
    },
    {
      "constant": false,
      "inputs": [],
      "name": "endOffering",
      "outputs": [],
      "payable": false,
      "stateMutability": "nonpayable",
      "type": "function"
    },
    {
      "constant": false,
      "inputs": [],
      "name": "buy",
      "outputs": [
        {
          "name": "",
          "type": "bool"
        }
      ],
      "payable": true,
      "stateMutability": "payable",
      "type": "function"
    },
    {
      "constant": true,
      "inputs": [],
      "name": "hasEnded",
      "outputs": [
        {
          "name": "",
          "type": "bool"
        }
      ],
      "payable": false,
      "stateMutability": "view",
      "type": "function"
    },
    {
      "constant": false,
      "inputs": [
        {
          "name": "to",
          "type": "address"
        },
        {
          "name": "tokens",
          "type": "uint256"
        }
      ],
      "name": "allocateTokensBeforeOffering",
      "outputs": [
        {
          "name": "",
          "type": "bool"
        }
      ],
      "payable": false,
      "stateMutability": "nonpayable",
      "type": "function"
    },
    {
      "constant": false,
      "inputs": [
        {
          "name": "toList",
          "type": "address[]"
        },
        {
          "name": "tokensList",
          "type": "uint256[]"
        }
      ],
      "name": "batchAllocateTokensBeforeOffering",
      "outputs": [
        {
          "name": "",
          "type": "bool"
        }
      ],
      "payable": false,
      "stateMutability": "nonpayable",
      "type": "function"
    }
  ],
  "bytecode": "0x606060405260008060146101000a81548160ff02191690831515021790555034156200002a57600080fd5b60405160808062001e2e83398101604052808051906020019091908051906020019091908051906020019091908051906020019091905050336000806101000a81548173ffffffffffffffffffffffffffffffffffffffff021916908373ffffffffffffffffffffffffffffffffffffffff160217905550600084111515620000b257600080fd5b600073ffffffffffffffffffffffffffffffffffffffff168373ffffffffffffffffffffffffffffffffffffffff1614151515620000ef57600080fd5b600073ffffffffffffffffffffffffffffffffffffffff168173ffffffffffffffffffffffffffffffffffffffff16141515156200012c57600080fd5b67016345785d8a000082101515156200014457600080fd5b80600460006101000a81548173ffffffffffffffffffffffffffffffffffffffff021916908373ffffffffffffffffffffffffffffffffffffffff1602179055508360058190555082600360006101000a81548173ffffffffffffffffffffffffffffffffffffffff021916908373ffffffffffffffffffffffffffffffffffffffff1602179055506000600e60006101000a81548160ff02191690836002811115620001ed57fe5b021790555062000216600383620002876401000000000262001af1179091906401000000009004565b600960006003811015156200022757fe5b018190555062000250600283620002876401000000000262001af1179091906401000000009004565b600960016003811015156200026157fe5b018190555081600960026003811015156200027857fe5b018190555050505050620002c6565b60008060008414156200029e5760009150620002bf565b8284029050828482811515620002b057fe5b04141515620002bb57fe5b8091505b5092915050565b611b5880620002d66000396000f30060606040526004361061016a576000357c0100000000000000000000000000000000000000000000000000000000900463ffffffff1680630126b8b614610175578063157003d9146101cf5780632852bdf2146102065780632c4e722e146102a05780633053aedc146102c95780633197cbb6146102f257806338af3eed1461031b5780633f4ba83a146103705780634042b66f1461038557806342e94c90146103ae5780635c975abb146103fb57806369ea177114610428578063782e34c91461044b57806378e97925146104605780637ec2fd36146104895780638456cb59146104b25780638d0bba03146104c75780638da5cb5b146104f05780639aaf5e05146105455780639be3b2861461059f578063a6f2ae3a146105b4578063c040e6b8146105d6578063cd863e251461060d578063e072830c14610630578063e458c75414610659578063ecb70fb7146106b6578063f2fde38b146106e3578063fc0c546a1461071c575b610172610771565b50005b341561018057600080fd5b6101b5600480803590602001908201803590602001919091929080359060200190820180359060200191909192905050610866565b604051808215151515815260200191505060405180910390f35b34156101da57600080fd5b6101f06004808035906020019091905050610993565b6040518082815260200191505060405180910390f35b341561021157600080fd5b61029e600480803590602001908201803590602001908080602002602001604051908101604052809392919081815260200183836020028082843782019150505050505091908035906020019082018035906020019080806020026020016040519081016040528093929190818152602001838360200280828437820191505050505050919050506109ad565b005b34156102ab57600080fd5b6102b3610b18565b6040518082815260200191505060405180910390f35b34156102d457600080fd5b6102dc610b1e565b6040518082815260200191505060405180910390f35b34156102fd57600080fd5b610305610b24565b6040518082815260200191505060405180910390f35b341561032657600080fd5b61032e610b2a565b604051808273ffffffffffffffffffffffffffffffffffffffff1673ffffffffffffffffffffffffffffffffffffffff16815260200191505060405180910390f35b341561037b57600080fd5b610383610b50565b005b341561039057600080fd5b610398610c0e565b6040518082815260200191505060405180910390f35b34156103b957600080fd5b6103e5600480803573ffffffffffffffffffffffffffffffffffffffff16906020019091905050610c14565b6040518082815260200191505060405180910390f35b341561040657600080fd5b61040e610c2c565b604051808215151515815260200191505060405180910390f35b341561043357600080fd5b6104496004808035906020019091905050610c3f565b005b341561045657600080fd5b61045e610cda565b005b341561046b57600080fd5b610473610db0565b6040518082815260200191505060405180910390f35b341561049457600080fd5b61049c610db6565b6040518082815260200191505060405180910390f35b34156104bd57600080fd5b6104c5610dbc565b005b34156104d257600080fd5b6104da610e7c565b6040518082815260200191505060405180910390f35b34156104fb57600080fd5b610503610e88565b604051808273ffffffffffffffffffffffffffffffffffffffff1673ffffffffffffffffffffffffffffffffffffffff16815260200191505060405180910390f35b341561055057600080fd5b610585600480803573ffffffffffffffffffffffffffffffffffffffff16906020019091908035906020019091905050610ead565b604051808215151515815260200191505060405180910390f35b34156105aa57600080fd5b6105b2611119565b005b6105bc610771565b604051808215151515815260200191505060405180910390f35b34156105e157600080fd5b6105e96111b4565b604051808260028111156105f957fe5b60ff16815260200191505060405180910390f35b341561061857600080fd5b61062e60048080359060200190919050506111c7565b005b341561063b57600080fd5b610643611300565b6040518082815260200191505060405180910390f35b341561066457600080fd5b61069c600480803560ff1690602001909190803573ffffffffffffffffffffffffffffffffffffffff1690602001909190505061130e565b604051808215151515815260200191505060405180910390f35b34156106c157600080fd5b6106c961133d565b604051808215151515815260200191505060405180910390f35b34156106ee57600080fd5b61071a600480803573ffffffffffffffffffffffffffffffffffffffff16906020019091905050611378565b005b341561072757600080fd5b61072f6114cd565b604051808273ffffffffffffffffffffffffffffffffffffffff1673ffffffffffffffffffffffffffffffffffffffff16815260200191505060405180910390f35b600080600060149054906101000a900460ff1615151561079057600080fd5b600180600281111561079e57fe5b600e60009054906101000a900460ff1660028111156107b957fe5b1415156107c557600080fd5b600091505b60038260ff16101561085c57600c60008360ff1660ff16815260200190815260200160002060003373ffffffffffffffffffffffffffffffffffffffff1673ffffffffffffffffffffffffffffffffffffffff16815260200190815260200160002060009054906101000a900460ff161561085157610848826114f3565b60019250610861565b8160010191506107ca565b600080fd5b505090565b6000806000809054906101000a900473ffffffffffffffffffffffffffffffffffffffff1673ffffffffffffffffffffffffffffffffffffffff163373ffffffffffffffffffffffffffffffffffffffff161415156108c457600080fd5b60008060028111156108d257fe5b600e60009054906101000a900460ff1660028111156108ed57fe5b1415156108f957600080fd5b848490508787905014151561090d57600080fd5b600091505b868690508263ffffffff1610156109855761097787878463ffffffff16818110151561093a57fe5b9050602002013573ffffffffffffffffffffffffffffffffffffffff1686868563ffffffff16818110151561096b57fe5b90506020020135610ead565b508180600101925050610912565b600192505050949350505050565b6009816003811015156109a257fe5b016000915090505481565b60008060009054906101000a900473ffffffffffffffffffffffffffffffffffffffff1673ffffffffffffffffffffffffffffffffffffffff163373ffffffffffffffffffffffffffffffffffffffff16141515610a0a57600080fd5b81518351141515610a1a57600080fd5b600090505b81518163ffffffff161015610b13576003838263ffffffff16815181101515610a4457fe5b9060200190602002015160ff16101515610a5d57600080fd5b6001600c6000858463ffffffff16815181101515610a7757fe5b9060200190602002015160ff1660ff1681526020019081526020016000206000848463ffffffff16815181101515610aab57fe5b9060200190602002015173ffffffffffffffffffffffffffffffffffffffff1673ffffffffffffffffffffffffffffffffffffffff16815260200190815260200160002060006101000a81548160ff0219169083151502179055508080600101915050610a1f565b505050565b60055481565b60075481565b60025481565b600360009054906101000a900473ffffffffffffffffffffffffffffffffffffffff1681565b6000809054906101000a900473ffffffffffffffffffffffffffffffffffffffff1673ffffffffffffffffffffffffffffffffffffffff163373ffffffffffffffffffffffffffffffffffffffff16141515610bab57600080fd5b600060149054906101000a900460ff161515610bc657600080fd5b60008060146101000a81548160ff0219169083151502179055507f7805862f689e2f13df9f062ff482ad3ad112aca9e0847911ed832e158c525b3360405160405180910390a1565b60065481565b600d6020528060005260406000206000915090505481565b600060149054906101000a900460ff1681565b6000809054906101000a900473ffffffffffffffffffffffffffffffffffffffff1673ffffffffffffffffffffffffffffffffffffffff163373ffffffffffffffffffffffffffffffffffffffff16141515610c9a57600080fd5b6000806002811115610ca857fe5b600e60009054906101000a900460ff166002811115610cc357fe5b141515610ccf57600080fd5b816005819055505050565b6000809054906101000a900473ffffffffffffffffffffffffffffffffffffffff1673ffffffffffffffffffffffffffffffffffffffff163373ffffffffffffffffffffffffffffffffffffffff16141515610d3557600080fd5b600360009054906101000a900473ffffffffffffffffffffffffffffffffffffffff1673ffffffffffffffffffffffffffffffffffffffff166108fc3073ffffffffffffffffffffffffffffffffffffffff16319081150290604051600060405180830381858888f193505050501515610dae57600080fd5b565b60015481565b60085481565b6000809054906101000a900473ffffffffffffffffffffffffffffffffffffffff1673ffffffffffffffffffffffffffffffffffffffff163373ffffffffffffffffffffffffffffffffffffffff16141515610e1757600080fd5b600060149054906101000a900460ff16151515610e3357600080fd5b6001600060146101000a81548160ff0219169083151502179055507f6985a02210a168e66602d3235cb6db0e70f92b3ba4d376a33c0f3d9434bff62560405160405180910390a1565b67016345785d8a000081565b6000809054906101000a900473ffffffffffffffffffffffffffffffffffffffff1681565b60008060009054906101000a900473ffffffffffffffffffffffffffffffffffffffff1673ffffffffffffffffffffffffffffffffffffffff163373ffffffffffffffffffffffffffffffffffffffff16141515610f0a57600080fd5b6000806002811115610f1857fe5b600e60009054906101000a900460ff166002811115610f3357fe5b141515610f3f57600080fd5b600460009054906101000a900473ffffffffffffffffffffffffffffffffffffffff1673ffffffffffffffffffffffffffffffffffffffff166323b872dd600460009054906101000a900473ffffffffffffffffffffffffffffffffffffffff1673ffffffffffffffffffffffffffffffffffffffff16638da5cb5b6000604051602001526040518163ffffffff167c0100000000000000000000000000000000000000000000000000000000028152600401602060405180830381600087803b151561100b57600080fd5b6102c65a03f1151561101c57600080fd5b5050506040518051905086866000604051602001526040518463ffffffff167c0100000000000000000000000000000000000000000000000000000000028152600401808473ffffffffffffffffffffffffffffffffffffffff1673ffffffffffffffffffffffffffffffffffffffff1681526020018373ffffffffffffffffffffffffffffffffffffffff1673ffffffffffffffffffffffffffffffffffffffff1681526020018281526020019350505050602060405180830381600087803b15156110e857600080fd5b6102c65a03f115156110f957600080fd5b50505060405180519050151561110e57600080fd5b600191505092915050565b6000809054906101000a900473ffffffffffffffffffffffffffffffffffffffff1673ffffffffffffffffffffffffffffffffffffffff163373ffffffffffffffffffffffffffffffffffffffff1614151561117457600080fd5b600180600281111561118257fe5b600e60009054906101000a900460ff16600281111561119d57fe5b1415156111a957600080fd5b6111b1611a63565b50565b600e60009054906101000a900460ff1681565b6000809054906101000a900473ffffffffffffffffffffffffffffffffffffffff1673ffffffffffffffffffffffffffffffffffffffff163373ffffffffffffffffffffffffffffffffffffffff1614151561122257600080fd5b600080600281111561123057fe5b600e60009054906101000a900460ff16600281111561124b57fe5b14151561125757600080fd5b6001600e60006101000a81548160ff0219169083600281111561127657fe5b02179055504260018190555062015180600154016007819055506202a300600154016008819055506112b382600854611ad390919063ffffffff16565b6002819055507f85ae6d2d52f005b7e439638c2368bb1b569ac99e8ec33ea2bd5b04952ab207cb600154600254604051808381526020018281526020019250505060405180910390a15050565b69010f0cf064dd5920000081565b600c6020528160005260406000206020528060005260406000206000915091509054906101000a900460ff1681565b6000600254421180611373575060028081111561135657fe5b600e60009054906101000a900460ff16600281111561137157fe5b145b905090565b6000809054906101000a900473ffffffffffffffffffffffffffffffffffffffff1673ffffffffffffffffffffffffffffffffffffffff163373ffffffffffffffffffffffffffffffffffffffff161415156113d357600080fd5b600073ffffffffffffffffffffffffffffffffffffffff168173ffffffffffffffffffffffffffffffffffffffff161415151561140f57600080fd5b8073ffffffffffffffffffffffffffffffffffffffff166000809054906101000a900473ffffffffffffffffffffffffffffffffffffffff1673ffffffffffffffffffffffffffffffffffffffff167f8be0079c531659141344cd1fd0a4f28419497f9722a3daafe3b4186f6b6457e060405160405180910390a3806000806101000a81548173ffffffffffffffffffffffffffffffffffffffff021916908373ffffffffffffffffffffffffffffffffffffffff16021790555050565b600460009054906101000a900473ffffffffffffffffffffffffffffffffffffffff1681565b600080600083600080600060038460ff1610151561151057600080fd5b600154421015801561152457506002544211155b801561155557506001600281111561153857fe5b600e60009054906101000a900460ff16600281111561155357fe5b145b151561156057600080fd5b349250339150600073ffffffffffffffffffffffffffffffffffffffff168273ffffffffffffffffffffffffffffffffffffffff16141580156115ab575067016345785d8a00008310155b15156115b657600080fd5b69010f0cf064dd592000006115d684600654611ad390919063ffffffff16565b111515156115e357600080fd5b60098460ff166003811015156115f557fe5b01549050600754421015611668578061165684600d60008673ffffffffffffffffffffffffffffffffffffffff1673ffffffffffffffffffffffffffffffffffffffff16815260200190815260200160002054611ad390919063ffffffff16565b1115151561166357600080fd5b6116e7565b6008544210156116e657611686600282611af190919063ffffffff16565b6116d884600d60008673ffffffffffffffffffffffffffffffffffffffff1673ffffffffffffffffffffffffffffffffffffffff16815260200190815260200160002054611ad390919063ffffffff16565b111515156116e557600080fd5b5b5b33965034955061170260055487611af190919063ffffffff16565b9450600460009054906101000a900473ffffffffffffffffffffffffffffffffffffffff1673ffffffffffffffffffffffffffffffffffffffff166323b872dd600460009054906101000a900473ffffffffffffffffffffffffffffffffffffffff1673ffffffffffffffffffffffffffffffffffffffff16638da5cb5b6000604051602001526040518163ffffffff167c0100000000000000000000000000000000000000000000000000000000028152600401602060405180830381600087803b15156117d057600080fd5b6102c65a03f115156117e157600080fd5b5050506040518051905089886000604051602001526040518463ffffffff167c0100000000000000000000000000000000000000000000000000000000028152600401808473ffffffffffffffffffffffffffffffffffffffff1673ffffffffffffffffffffffffffffffffffffffff1681526020018373ffffffffffffffffffffffffffffffffffffffff1673ffffffffffffffffffffffffffffffffffffffff1681526020018281526020019350505050602060405180830381600087803b15156118ad57600080fd5b6102c65a03f115156118be57600080fd5b5050506040518051905015156118d357600080fd5b6118e886600654611ad390919063ffffffff16565b60068190555061194086600d60008a73ffffffffffffffffffffffffffffffffffffffff1673ffffffffffffffffffffffffffffffffffffffff16815260200190815260200160002054611ad390919063ffffffff16565b600d60008973ffffffffffffffffffffffffffffffffffffffff1673ffffffffffffffffffffffffffffffffffffffff1681526020019081526020016000208190555069010f0cf064dd592000006006541015156119a1576119a0611a63565b5b600360009054906101000a900473ffffffffffffffffffffffffffffffffffffffff1673ffffffffffffffffffffffffffffffffffffffff166108fc879081150290604051600060405180830381858888f193505050501515611a0357600080fd5b3373ffffffffffffffffffffffffffffffffffffffff167fcd60aa75dea3072fbc07ae6d7d856b5dc5f4eee88854f5b4abf7b680ef8bc50f8787604051808381526020018281526020019250505060405180910390a25050505050505050565b426002819055506002600e60006101000a81548160ff02191690836002811115611a8957fe5b02179055507f02359fdde4491e11fa0985b799db1f730257a9715a67fd4b9ed9956e194025f0600254600654604051808381526020018281526020019250505060405180910390a1565b6000808284019050838110151515611ae757fe5b8091505092915050565b6000806000841415611b065760009150611b25565b8284029050828482811515611b1757fe5b04141515611b2157fe5b8091505b50929150505600a165627a7a72305820ecbc9923b7b04e223281105fa41655d12817275baf07e5e6dd5d062f29edf04e0029",
  "source": "pragma solidity ^0.4.18;\nimport \"./AlfaToken.sol\";\nimport \"../node_modules/zeppelin-solidity/contracts/lifecycle/Pausable.sol\";\n\ncontract AlfaTokenOffering is Pausable {\n    using SafeMath for uint256;\n\n    // Start and end timestamps where contributions are allowed (both inclusive)\n    uint256 public startTime;\n    uint256 public endTime;\n\n    // Address where funds are collected\n    address public beneficiary;\n\n    // Token to be sold\n    AlfaToken public token;\n\n    // Price of the tokens as in tokens per ether\n    uint256 public rate;\n\n    // Amount of raised in Wei (1 ether)\n    uint256 public weiRaised;\n\n    // Timelines for different contribution limit policy\n    uint256 public capDoublingTimestamp;\n    uint256 public capReleaseTimestamp;\n\n    // Individual contribution limits in Wei per tier\n    uint256[3] public tierCaps;\n\n    // Whitelists of participant address for each tier\n    mapping(uint8 => mapping(address => bool)) public whitelists;\n\n    // Contributions in Wei for each participant\n    mapping(address => uint256) public contributions;\n\n    // Funding cap in ETH. Change to equal $5M at time of token offering\n    uint256 public constant FUNDING_ETH_HARD_CAP = 5000 * 1 ether;\n\n    // Min contribution is 0.1 ether\n    uint256 public constant MINIMUM_CONTRIBUTION = 10**17;\n\n    // The current stage of the offering\n    Stages public stage;\n\n    enum Stages { \n        Setup,\n        OfferingStarted,\n        OfferingEnded\n    }\n\n    event OfferingOpens(uint256 startTime, uint256 endTime);\n    event OfferingCloses(uint256 endTime, uint256 totalWeiRaised);\n    /**\n     * Event for token purchase logging\n     *\n     * @param purchaser Who paid for the tokens\n     * @param value Weis paid for purchase\n     * @return amount Amount of tokens purchased\n     */\n    event TokenPurchase(address indexed purchaser, uint256 value, uint256 amount);\n\n    /**\n     * Modifier that requires certain stage before executing the main function body\n     *\n     * @param expectedStage Value that the current stage is required to match\n     */\n    modifier atStage(Stages expectedStage) {\n        require(stage == expectedStage);\n        _;\n    }\n\n    /**\n     * Modifier that validates a purchase at a tier\n     * All the following has to be met:\n     * - current time within the offering period\n     * - valid sender address and ether value greater than 0.1\n     * - total Wei raised not greater than FUNDING_ETH_HARD_CAP\n     * - contribution per perticipant within contribution limit\n     *\n     * @param tier Index of the tier\n     */\n    modifier validPurchase(uint8 tier) {\n        require(tier < tierCaps.length);\n        require(now >= startTime && now <= endTime && stage == Stages.OfferingStarted);\n\n        uint256 contributionInWei = msg.value;\n        address participant = msg.sender;\n        require(participant != address(0) && contributionInWei >= MINIMUM_CONTRIBUTION);\n        require(weiRaised.add(contributionInWei) <= FUNDING_ETH_HARD_CAP);\n\n        uint256 initialCapInWei = tierCaps[tier];\n        \n        if (now < capDoublingTimestamp) {\n            require(contributions[participant].add(contributionInWei) <= initialCapInWei);\n        } else if (now < capReleaseTimestamp) {\n            require(contributions[participant].add(contributionInWei) <= initialCapInWei.mul(2));\n        }\n\n        _;\n    }\n\n    /**\n     * The constructor of the contract.\n     * Note: tierCaps[tier] define the individual contribution limits in Wei of each address\n     * per tier within the first tranche of the sale (sale start ~ capDoublingTimestamp)\n     * these limits are doubled between capDoublingTimestamp ~ capReleaseTimestamp\n     * and are lifted completely between capReleaseTimestamp ~ end time\n     *  \n     * @param alfaToEtherRate Number of alfatokens per ether\n     * @param beneficiaryAddr Address where funds are collected\n     * @param baseContributionCapInWei Base contribution limit in Wei per address\n     */\n    function AlfaTokenOffering(\n        uint256 alfaToEtherRate, \n        address beneficiaryAddr, \n        uint256 baseContributionCapInWei,\n        address tokenAddress\n    ) public {\n        require(alfaToEtherRate > 0);\n        require(beneficiaryAddr != address(0));\n        require(tokenAddress != address(0));\n        require(baseContributionCapInWei >= MINIMUM_CONTRIBUTION);\n\n        token = AlfaToken(tokenAddress);\n        rate = alfaToEtherRate;\n        beneficiary = beneficiaryAddr;\n        stage = Stages.Setup;\n\n        // Contribution cap per tier in Wei\n        tierCaps[0] = baseContributionCapInWei.mul(3);\n        tierCaps[1] = baseContributionCapInWei.mul(2);\n        tierCaps[2] = baseContributionCapInWei;\n    }\n\n    /**\n     * Fallback function can be used to buy tokens\n     */\n    function () public payable {\n        buy();\n    }\n\n    /**\n     * Withdraw available ethers into beneficiary account, serves as a safety, should never be needed\n     */\n    function ownerSafeWithdrawal() external onlyOwner {\n        beneficiary.transfer(this.balance);\n    }\n\n    function updateRate(uint256 alfaToEtherRate) public onlyOwner atStage(Stages.Setup) {\n        rate = alfaToEtherRate;\n    }\n\n    /**\n     * Whitelist participant address per tier\n     * \n     * @param tiers Array of indices of tier, each value should be less than tierCaps.length\n     * @param users Array of addresses to be whitelisted\n     */\n    function whitelist(uint8[] tiers, address[] users) public onlyOwner {\n        require(tiers.length == users.length);\n        for (uint32 i = 0; i < users.length; i++) {\n            require(tiers[i] < tierCaps.length);\n            whitelists[tiers[i]][users[i]] = true;\n        }\n    }\n\n    /**\n     * Start the offering\n     *\n     * @param durationInSeconds Extra duration of the offering on top of the minimum 48 hours\n     */\n    function startOffering(uint256 durationInSeconds) public onlyOwner atStage(Stages.Setup) {\n        stage = Stages.OfferingStarted;\n        startTime = now;\n        capDoublingTimestamp = startTime + 24 hours;\n        capReleaseTimestamp = startTime + 48 hours;\n        endTime = capReleaseTimestamp.add(durationInSeconds);\n        OfferingOpens(startTime, endTime);\n    }\n\n    /**\n     * End the offering\n     */\n    function endOffering() public onlyOwner atStage(Stages.OfferingStarted) {\n        endOfferingImpl();\n    }\n    \n    /**\n     * Function to invest ether to buy tokens, can be called directly or called by the fallback function\n     * Only whitelisted users can buy tokens.\n     *\n     * @return bool Return true if purchase succeeds, false otherwise\n     */\n    function buy() public payable whenNotPaused atStage(Stages.OfferingStarted) returns (bool) {\n        for (uint8 i = 0; i < tierCaps.length; ++i) {\n            if (whitelists[i][msg.sender]) {\n                buyTokensTier(i);\n                return true;\n            }\n        }\n        revert();\n    }\n\n    /**\n     * Function that returns whether offering has ended\n     * \n     * @return bool Return true if token offering has ended\n     */\n    function hasEnded() public view returns (bool) {\n        return now > endTime || stage == Stages.OfferingEnded;\n    }\n\n    /**\n     * Internal function that buys token per tier\n     * \n     * Investiment limit changes over time:\n     * 1) [offering starts ~ capDoublingTimestamp]:     1x of contribution limit per tier (1 * tierCaps[tier])\n     * 2) [capDoublingTimestamp ~ capReleaseTimestamp]: limit per participant is raised to 2x of contribution limit per tier (2 * tierCaps[tier])\n     * 3) [capReleaseTimestamp ~ offering ends]:        no limit per participant as along as total Wei raised is within FUNDING_ETH_HARD_CAP\n     *\n     * @param tier Index of tier of whitelisted participant\n     */\n    function buyTokensTier(uint8 tier) internal validPurchase(tier) {\n        address participant = msg.sender;\n        uint256 contributionInWei = msg.value;\n\n        // Calculate token amount to be distributed\n        uint256 tokens = contributionInWei.mul(rate);\n        \n        if (!token.transferFrom(token.owner(), participant, tokens)) {\n            revert();\n        }\n\n        weiRaised = weiRaised.add(contributionInWei);\n        contributions[participant] = contributions[participant].add(contributionInWei);\n        // Check if the funding cap has been reached, end the offering if so\n        if (weiRaised >= FUNDING_ETH_HARD_CAP) {\n            endOfferingImpl();\n        }\n        \n        // Transfer funds to beneficiary\n        beneficiary.transfer(contributionInWei);\n        TokenPurchase(msg.sender, contributionInWei, tokens);       \n    }\n\n    /**\n     * End token offering by set the stage and endTime\n     */\n    function endOfferingImpl() internal {\n        endTime = now;\n        stage = Stages.OfferingEnded;\n        OfferingCloses(endTime, weiRaised);\n    }\n\n    /**\n     * Allocate tokens for presale participants before public offering, can only be executed at Stages.Setup stage.\n     *\n     * @param to Participant address to send AlfaTokens to\n     * @param tokens Amount of AlfaTokens to be sent to parcitipant \n     */\n    function allocateTokensBeforeOffering(address to, uint256 tokens)\n        public\n        onlyOwner\n        atStage(Stages.Setup)\n        returns (bool)\n    {\n        if (!token.transferFrom(token.owner(), to, tokens)) {\n            revert();\n        }\n        return true;\n    }\n    \n    /**\n     * Bulk version of allocateTokensBeforeOffering\n     */\n    function batchAllocateTokensBeforeOffering(address[] toList, uint256[] tokensList)\n        external\n        onlyOwner\n        atStage(Stages.Setup)\n        returns (bool)\n    {\n        require(toList.length == tokensList.length);\n\n        for (uint32 i = 0; i < toList.length; i++) {\n            allocateTokensBeforeOffering(toList[i], tokensList[i]);\n        }\n        return true;\n    }\n\n}\n",
  "sourcePath": "C:\\Ethereum\\crowdsalecontract-smart\\smartcontracts-master\\contracts\\AlfaTokenOffering.sol",
  "compiler": {
    "name": "solc",
    "version": "0.4.19+commit.c4cbbb05.Emscripten.clang"
  },
  "schemaVersion": "1.0.1",
  "updatedAt": "2018-02-16T07:10:18.688Z"
}